:020000040800F2
:100000000000012089370008D9370008D9370008D7
:10001000D9370008D9370008D93700080000000098
:10002000000000000000000000000000D9370008B8
:10003000D937000800000000D9370008BD3100089A
:10004000D9370008D9370008D9370008D937000850
:10005000D9370008D9370008D9370008D937000840
:10006000D9370008D9370008D9370008D937000830
:10007000D9370008D9370008D9370008D937000820
:10008000D9370008D9370008D9370008D937000810
:10009000D9370008D9370008D9370008D937000800
:1000A000D9370008D9370008D9370008D9370008F0
:1000B000D9370008D937000800000000D9370008F8
:1000C000D9370008D9370008D9370008D9370008D0
:1000D000D9370008D9370008D9370008D9370008C0
:1000E000D9370008D9370008D937000800000000C8
:1000F000000000000000000000000000D9370008E8
:1001000000000000D937000800000000D9370008BF
:10011000D937000800000000D9370008D937000897
:10012000D9370008D9370008D9370008D93700086F
:10013000D9370008D9370008D9370008D93700085F
:10014000D9370008D9370008D9370008D93700084F
:10015000D9370008D9370008D9370008D93700083F
:10016000D9370008D9370008D93700080000000047
:10017000D9370008D9370008D9370008D93700081F
:10018000D937000800000000D9370008D937000827
:04019000D937000853
:1001C00010B5054C237833B9044B13B10448AFF391
:1001D00000800123237010BDB40600200000000041
:1001E000B48F000808B5034B1BB103490348AFF3B4
:1001F000008008BD00000000B8060020B48F000891
:1002000081F0004102E000BF83F0004330B54FEAC7
:1002100041044FEA430594EA050F08BF90EA020F34
:100220001FBF54EA000C55EA020C7FEA645C7FEAC7
:10023000655C00F0E2804FEA5454D4EB5555B8BFEA
:100240006D420CDD2C4480EA020281EA030382EA5B
:10025000000083EA010180EA020281EA0303362DED
:1002600088BF30BD11F0004F4FEA01314FF4801CC0
:100270004CEA113102D0404261EB410113F0004FD2
:100280004FEA03334CEA133302D0524263EB430389
:1002900094EA050F00F0A780A4F10104D5F1200E27
:1002A0000DDB02FA0EFC22FA05F2801841F1000182
:1002B00003FA0EF2801843FA05F359410EE0A5F156
:1002C00020050EF1200E012A03FA0EFC28BF4CF087
:1002D000020C43FA05F3C01851EBE37101F000453D
:1002E00007D54FF0000EDCF1000C7EEB00006EEB4A
:1002F0000101B1F5801F1BD3B1F5001F0CD34908D4
:100300005FEA30004FEA3C0C04F101044FEA44522A
:1003100012F5800F80F09A80BCF1004F08BF5FEAB1
:10032000500C50F1000041EB045141EA050130BD91
:100330005FEA4C0C404141EB0101013C28BFB1F5A3
:10034000801FE9D291F0000F04BF01460020B1FAEE
:1003500081F308BF2033A3F10B03B3F120020CDAC1
:100360000C3208DD02F1140CC2F10C0201FA0CF09F
:1003700021FA02F10CE002F11402D8BFC2F1200C04
:1003800001FA02F120FA0CFCDCBF41EA0C019040BA
:10039000E41AA2BF01EB0451294330BD6FEA040403
:1003A0001F3C1CDA0C340EDC04F11404C4F12002EE
:1003B00020FA04F001FA02F340EA030021FA04F300
:1003C00045EA030130BDC4F10C04C4F1200220FA57
:1003D00002F001FA04F340EA0300294630BD21FA95
:1003E00004F0294630BD94F0000F83F4801306BF5B
:1003F00081F480110134013D4EE77FEA645C18BF4F
:100400007FEA655C29D094EA050F08BF90EA020FE5
:1004100005D054EA000C04BF1946104630BD91EADD
:10042000030F1EBF0021002030BD5FEA545C05D1E0
:100430004000494128BF41F0004130BD14F580041F
:100440003CBF01F5801130BD01F0004545F0FE4193
:1004500041F470014FF0000030BD7FEA645C1ABFC8
:10046000194610467FEA655C1CBF0B46024650EAFF
:10047000013406BF52EA033591EA030F41F400212B
:1004800030BD00BF90F0000F04BF0021704730B5B1
:100490004FF4806404F132044FF000054FF0000186
:1004A00050E700BF90F0000F04BF0021704730B547
:1004B0004FF4806404F1320410F0004548BF40421C
:1004C0004FF000013EE700BF42004FEAE2014FEA71
:1004D00031014FEA02701FBF12F07F4393F07F4F4C
:1004E00081F06051704732F07F4208BF704793F04F
:1004F0007F4F04BF41F40021704730B54FF4607462
:1005000001F0004521F000411CE700BF50EA010264
:1005100008BF704730B54FF000050AE050EA01020D
:1005200008BF704730B511F0004502D5404261EB7D
:1005300041014FF4806404F132045FEA915C3FF4BE
:10054000D8AE4FF003025FEADC0C18BF03325FEA5B
:10055000DC0C18BF033202EBDC02C2F1200300FA0C
:1005600003FC20FA02F001FA03FE40EA0E0021FA31
:1005700002F11444BDE600BF844641EA000313F0D3
:1005800003036DD1403A41D351F8043B40F8043B9A
:1005900051F8043B40F8043B51F8043B40F8043B5D
:1005A00051F8043B40F8043B51F8043B40F8043B4D
:1005B00051F8043B40F8043B51F8043B40F8043B3D
:1005C00051F8043B40F8043B51F8043B40F8043B2D
:1005D00051F8043B40F8043B51F8043B40F8043B1D
:1005E00051F8043B40F8043B51F8043B40F8043B0D
:1005F00051F8043B40F8043B51F8043B40F8043BFD
:1006000051F8043B40F8043B403ABDD2303211D39C
:1006100051F8043B40F8043B51F8043B40F8043BDC
:1006200051F8043B40F8043B51F8043B40F8043BCC
:10063000103AEDD20C3205D351F8043B40F8043B9C
:10064000043AF9D2043208D0D2071CBF11F8013B9A
:1006500000F8013B01D30B8803806046704700BF60
:10066000082A13D38B078DD010F003038AD0C3F16F
:100670000403D21ADB071CBF11F8013B00F8013B51
:1006800080D331F8023B20F8023B7BE7043AD9D310
:10069000013A11F8013B00F8013BF9D20B780370E5
:1006A0004B7843708B788370604670470000000081
:1006B000000000000000000000000000000000003A
:1006C00030B490F800F020F007016FF0000C10F04B
:1006D000070491F820F040F048804FF000046FF0DC
:1006E0000700D1E9002391F840F000F1080082FAF8
:1006F0004CF2A4FA8CF283FA4CF3A2FA8CF34BBBC3
:10070000D1E9022382FA4CF200F10800A4FA8CF23B
:1007100083FA4CF3A2FA8CF3E3B9D1E9042382FA09
:100720004CF200F10800A4FA8CF283FA4CF3A2FA1E
:100730008CF37BB9D1E9062301F1200182FA4CF256
:1007400000F10800A4FA8CF283FA4CF3A2FA8CF3BD
:10075000002BC6D0002A04BF04301A4612BAB2FADF
:1007600082F200EBD20030BC7047D1E9002304F0E4
:100770000305C4F100004FEAC50514F0040F91F819
:1007800040F00CFA05F562EA05021CBF63EA0503B6
:1007900062464FF00004AAE70000000000000000DD
:1007A00001F0FF01102A2BDB10F0070F08D010F822
:1007B000013B013A8B422DD010F0070F42B3F6D126
:1007C000F0B441EA012141EA014122F007047FF03F
:1007D00000070023F0E80256083C85EA010586EA96
:1007E000010685FA47F5A3FA87F586FA47F6A5FAD2
:1007F00087F68EB9EED1F0BC01F0FF0102F00702DE
:1008000032B110F8013B013A83EA010313B1F8D188
:100810000020704701387047002D06BF3546033869
:10082000073815F0010F07D1013015F4807F02BFA2
:10083000013015F4C03F0130F0BC0138704700BFF3
:1008400070B54FF0FF0C4CF4E06C1CEA11541DBF66
:100850001CEA135594EA0C0F95EA0C0F00F0DEF831
:100860002C4481EA030621EA4C5123EA4C5350EA16
:10087000013518BF52EA033541F4801143F4801367
:1008800038D0A0FB02CE4FF00005E1FB02E506F0F8
:100890000042E0FB03E54FF00006E1FB03569CF04D
:1008A000000F18BF4EF0010EA4F1FF04B6F5007F53
:1008B00064F5407404D25FEA4E0E6D4146EB0606C5
:1008C00042EAC62141EA55514FEAC52040EA5E504E
:1008D0004FEACE2EB4F1FD0C88BFBCF5E06F1ED8F8
:1008E000BEF1004F08BF5FEA500E50F1000041EB2F
:1008F000045170BD06F0004646EA010140EA0200DC
:1009000081EA0301B4EB5C04C2BFD4EB0C0541EAFD
:10091000045170BD41F480114FF0000E013C00F312
:10092000AB8014F1360FDEBF002001F0004170BD36
:10093000C4F10004203C35DA0C341BDC04F114044F
:10094000C4F1200500FA05F320FA04F001FA05F2DB
:1009500040EA020001F0004221F0004110EBD370A8
:1009600021FA04F642EB06015EEA430E08BF20EAD4
:10097000D37070BDC4F10C04C4F1200500FA04F377
:1009800020FA05F001FA04F240EA020001F0004109
:1009900010EBD37041F100015EEA430E08BF20EA7C
:1009A000D37070BDC4F1200500FA05F24EEA020EC4
:1009B00020FA04F301FA05F243EA020321FA04F0F3
:1009C00001F0004121FA04F220EA020000EBD370AA
:1009D0005EEA430E08BF20EAD37070BD94F0000FAA
:1009E0000FD101F00046400041EB010111F4801FDE
:1009F00008BF013CF7D041EA060195F0000F18BF8F
:100A0000704703F00046520043EB030313F4801FCA
:100A100008BF013DF7D043EA0603704794EA0C0F84
:100A20000CEA135518BF95EA0C0F0CD050EA41069A
:100A300018BF52EA4306D1D181EA030101F0004117
:100A40004FF0000070BD50EA410606BF104619463F
:100A500052EA430619D094EA0C0F02D150EA01364B
:100A600013D195EA0C0F05D152EA03361CBF10468C
:100A700019460AD181EA030101F0004141F0FE412B
:100A800041F470014FF0000070BD41F0FE4141F4AF
:100A9000780170BD70B54FF0FF0C4CF4E06C1CEAAF
:100AA00011541DBF1CEA135594EA0C0F95EA0C0F64
:100AB00000F0A7F8A4EB050481EA030E52EA03351F
:100AC0004FEA013100F088804FEA03334FF0805540
:100AD00045EA131343EA12634FEA022245EA11156D
:100AE00045EA10654FEA00260EF000419D4208BF1E
:100AF000964244F1FD0404F5407402D25B084FEACB
:100B00003202B61A65EB03055B084FEA32024FF476
:100B100080104FF4002CB6EB020E75EB030E22BFD3
:100B2000B61A754640EA0C005B084FEA3202B6EB93
:100B3000020E75EB030E22BFB61A754640EA5C0042
:100B40005B084FEA3202B6EB020E75EB030E22BFD2
:100B5000B61A754640EA9C005B084FEA3202B6EBD3
:100B6000020E75EB030E22BFB61A754640EADC0092
:100B700055EA060E18D04FEA051545EA16754FEAF4
:100B800006164FEAC30343EA52734FEAC2025FEA12
:100B90001C1CC0D111F4801F0BD141EA00014FF0A1
:100BA00000004FF0004CB6E711F4801F04BF014372
:100BB0000020B4F1FD0C88BFBCF5E06F3FF6AFAE8E
:100BC000B5EB030C04BFB6EB020C5FEA500C50F11E
:100BD000000041EB045170BD0EF0004E4EEA1131A1
:100BE00014EB5C04C2BFD4EB0C0541EA045170BDA8
:100BF00041F480114FF0000E013C90E645EA060EEC
:100C00008DE60CEA135594EA0C0F08BF95EA0C0F19
:100C10003FF43BAF94EA0C0F0AD150EA01347FF461
:100C200034AF95EA0C0F7FF425AF104619462CE738
:100C300095EA0C0F06D152EA03353FF4FDAE10469B
:100C4000194622E750EA410618BF52EA43067FF4EC
:100C5000C5AE50EA41047FF40DAF52EA43057FF47C
:100C6000EBAE12E74FF0FF3C06E000BF4FF0010C87
:100C700002E000BF4FF0010C4DF804CD4FEA410CEB
:100C80007FEA6C5C4FEA430C18BF7FEA6C5C1BD0B8
:100C900001B050EA410C0CBF52EA430C91EA030F39
:100CA00002BF90EA020F0020704710F1000F91EA96
:100CB000030F58BF994208BF90422CBFD8176FEA64
:100CC000E37040F0010070474FEA410C7FEA6C5C32
:100CD00002D150EA013C07D14FEA430C7FEA6C5C39
:100CE000D6D152EA033CD3D05DF8040B704700BF65
:100CF0008446104662468C461946634600E000BFB3
:100D000001B5FFF7B7FF002848BF10F1000F01BD84
:100D10004DF808EDFFF7F4FF0CBF012000205DF84F
:100D200008FB00BF4DF808EDFFF7EAFF34BF0120D4
:100D300000205DF808FB00BF4DF808EDFFF7E0FF6D
:100D400094BF012000205DF808FB00BF4DF808EDBE
:100D5000FFF7CEFF94BF012000205DF808FB00BF25
:100D60004DF808EDFFF7C4FF34BF012000205DF807
:100D700008FB00BF4FEA410C7FEA6C5C02D150EAED
:100D8000013C0AD14FEA430C7FEA6C5C02D152EA83
:100D9000033C02D14FF0000070474FF00100704754
:100DA0004FEA410212F5001215D211D56FF4787393
:100DB000B3EB625212D94FEAC12343F0004343EA36
:100DC000505311F0004F23FA02F018BF4042704711
:100DD0004FF00000704750EA013005D111F000409B
:100DE00008BF6FF0004070474FF00000704700BF31
:100DF000024A0349034800F0C9B800BF00000020C0
:100E00007D1A0008100000200C4B4168994210B573
:100E1000044601D000F032FEA168094B994202D08D
:100E2000204600F02BFEE168064B994204D0204694
:100E3000BDE8104000F022BE10BD00BFD00600206B
:100E400038070020A00700202DE9F843314A324C32
:100E50003249DFF8DC90DFF8DC80314F116000258B
:100E600004232946082204F15C00C4E903352D4E11
:100E7000A560C4E90055C4E90555656600F0F0F8C1
:100E800004F15800C4E90749C4E90987E66200F0A3
:100E9000B1F92946244B6367082204F1C400C4E970
:100EA0001A55C4E91E552567C4F8CC50C4F88050C3
:100EB00000F0D6F804F1680304F1C000C4F88430EF
:100EC000C4E92298C4E9247600F094F9174BC4F8D9
:100ED000DC30294604F596700822C4E93455C4E98B
:100EE0003855C4F8D850C4F83451C4F8E85000F06C
:100EF000B7F804F1D003C4E93D87C4F8F09004F5D5
:100F00009470C4F8FC60C4F8EC30BDE8F84300F01D
:100F100071B900BF08080020D0060020F10D0008BC
:100F200035100008591000080900010012000200E5
:100F3000D10F0008F50F000810B504460A4800F06C
:100F40005DF9636B23B9094B094A1B68626323B1DE
:100F5000BDE81040044800F053B9FFF775FFBDE845
:100F60001040014800F04CB9180800200808002083
:100F7000090E0008014800F041B900BF1808002020
:100F8000014800F03DB900BF180800202DE9F843E2
:100F90000746884616464FF00009D6E90154013D40
:100FA00010D4A389012B08D9B4F90E30013321469E
:100FB000384602D0C04749EA0009013D6B1C04F1E4
:100FC0006804EED13668002EE7D14846BDE8F883C4
:100FD00010B50C46B1F90E1000F0B8F8002803DB8C
:100FE000236D0344236510BDA38923F48053A3819B
:100FF00010BD00BF2DE9F0410C46B1F90C101F46A1
:10100000CB05054616460BD421F48051A1813B4601
:10101000B4F90E1032462846BDE8F04100F0ACB8F5
:10102000B4F90E100223002200F07AF8B4F90C1083
:10103000EAE700BF10B50C46B1F90E1000F070F8E9
:10104000B4F90C30421C0EBF23F4805343F4805398
:101050002065A38110BD00BFB1F90E1000F04EB89D
:10106000830730B546D08418844604E003F8011B9A
:101070009D0704D09C46A4456346F7D130BD013A94
:101080000244A2EB0C02032A29D9CCB204EB0424BB
:101090000F2A04EB04442FD9A2F1100C2CF00F0CF2
:1010A00003F11005AC44C3E90044C3E90244103322
:1010B0006345F8D112F00C0F02F00F0E18D02EF08D
:1010C000030C9C44AEF104051A4642F8044B6245F9
:1010D000FBD125F0030404330EF003022344002A5D
:1010E000CCD0C9B21A4403F8011B9342FBD130BDE6
:1010F0007246F4E70346C6E79646E0E738B5074D83
:101100000022044608462A6002F009FB431C00D076
:1011100038BD2B68002BFBD0236038BD0C080020A5
:1011200038B50D46084C8446114628461A46002319
:101130002360654602F01AFB431C00D038BD2368CB
:10114000002BFBD02B6038BD0C08002038B50D46B5
:10115000084C8446114628461A46002323606546FB
:1011600002F0A4FA431C00D038BD2368002BFBD04A
:101170002B6038BD0C08002038B50D46084C84465D
:10118000114628461A4600232360654602F0ABFA52
:10119000431C00D038BD2368002BFBD02B6038BD2A
:1011A0000C08002070B50F4B0F4DAB42A3EB0506AA
:1011B00007D0B610002455F8043B01349847A642E6
:1011C000F9D807F0F7FE094D094B5E1BAB424FEA19
:1011D000A60606D0002455F8043B01349847A642E1
:1011E000F9D870BD1C9400081C9400081C940008D9
:1011F00024940008704700BF704700BF704700BFCD
:10120000704700BF024B13B1024800F005B87047A9
:1012100000000000ED1C0008002301461A46184695
:1012200000F086BD2DE9F84306460820894600F007
:1012300071FDDFF8A4800546304600F013FCD8F8B5
:1012400008305F6827F00307A7F11104A4EB090435
:101250002C44B4FBF5F4013C05FB04F4A54208DC86
:101260000021304600F030FDD8F808303B44984269
:1012700005D0304600F0FCFB0020BDE8F883614259
:10128000304600F021FD01300FD0114AD8F8083067
:101290003F1B47F001075F60136830461B1B13605C
:1012A00000F0E6FB0120BDE8F8830021304600F0A5
:1012B0000BFDD8F80820831A0F2BDADD43F0010369
:1012C0005360044B02491B68C01A0860D1E700BF95
:1012D00020080020340100204001002000295BD0BC
:1012E000F8B50C46074600F0BDFB54F804CC744D2D
:1012F000A4F108022CF00103D118A8684E688842B6
:1013000026F003060CF0010E7ED088194E6040686E
:1013100000F00100BEF1000F2FD154F8084C121B51
:101320002344946805F1080C644562D0D2F80CE0BF
:10133000C4F80CE0CEF8084000287FD043F001004C
:1013400050600B60B3F5007F2FD2D90868685C0944
:101350000131012309B2A34003436B6055F831000A
:10136000906005EBC103083BD36045F83120C260B3
:101370003846BDE8F84000F07BBB70B9334405F156
:10138000080C8868604543F0010471D0C968C160E9
:1013900088605460D350D5E770474CF00101B3F535
:1013A000007F44F8041CD350CFD3B3F5206F4FEA2D
:1013B000532045D2980900F1390109B200F13804EF
:1013C000C900681869580838884203D157E089680D
:1013D000884204D04C6824F003049C42F7D8C868C3
:1013E000C2E9021082603846CA60BDE8F84000F0E9
:1013F0003FBB88BB1E44D1E90213CB60996046F025
:10140000010353609651B3E71E44BEF1000F07D1AC
:1014100054F8083CD21A1E44D2E90213CB609960FA
:1014200046F001035360274BAA601B68B3429FD864
:10143000254B38461968FFF7F5FE99E73344A0E7D6
:1014400014280ED9542821D8180B00F16F0109B2C5
:1014500000F16E04C900B4E743F0010050600B6076
:1014600086E700F15C0109B200F15B04C900A8E75E
:10147000C5E90422C2E902CC5460D35078E76E6813
:10148000A4100123A34033436B60A9E7B0F5AA7F02
:1014900007D8D80B00F1780109B200F17704C90030
:1014A0008FE740F25451884206D8980C00F17D0134
:1014B00000F17C04C90084E74FF47E717E2480E74C
:1014C0004001002038010020500800202DE9F04F95
:1014D00001F10B05162D83B0064623D8102900F222
:1014E000B48000F0BFFA102518230220B84F3B4407
:1014F000A3F108025C68944200F064816368E268CA
:10150000A16823F00303CA602344304691605A68FF
:1015100042F001025A6000F0ABFA0834204603B0F2
:10152000BDE8F08F35F0070500F18F80A94200F289
:101530008C8000F097FAB5F5FC7FC0F0B8815FEAC7
:10154000552E00F08980BEF1040F00F270814FEA41
:10155000951E0EF1390003B20EF1380EDB009C4FE0
:101560003B44A3F1080C5C68A44507D10DE0002AB8
:10157000E16880F221818C4507D00C46636823F036
:1015800003035A1B0F2AF2DD7046DFF85C823C69C8
:10159000444500F0FE80636823F0030CACEB0503C8
:1015A0000F2B00F38981002BC7E9048880F2738137
:1015B000BCF5007FD7F804E080F018814FEADC0327
:1015C000013319B24FEA5C1C012303FA0CF357F8FC
:1015D0003120A2604EEA030E07EBC103083BE36033
:1015E000C7F804E047F83140D46083104FF0010C95
:1015F0000CFA03FCF44535D81CEA0E0F08D120F094
:1016000003004FEA4C0C1CEA0E0F00F10400F8D066
:1016100007EBC00AD6468146DEF80C300BE059686D
:1016200021F003014A1B0F2A1C46DB6800F30F81DF
:10163000002A80F223819E45F1D109F1010919F0B8
:10164000030F0EF1080EE7D161E10C233360002493
:10165000204603B0BDE8F08F4FF4007340204FF0F8
:101660003F0E7CE7BC68636823F00309A94504D3F7
:10167000A9EB05030F2B00F38F80564B1B68082046
:1016800003F1100804EB0903009300F043FB524AF6
:1016900013680133A844834605D008F1FF3880441D
:1016A000434203EA08084146304600F00DFBB0F122
:1016B000FF3F494A824600F01B8104EB0903834245
:1016C00000F21481454B186840440BF1FF3C186050
:1016D00000F072811168013100F07A8104EB090297
:1016E000AAEB020202441A601AF00702CDE90023B5
:1016F00000F03281C2F108029244D04408EA0C01A1
:101700005A44521A02EA0C0B5946304600F0DCFAF1
:10171000421C019B00F07981A0EB0A0000EB0B0852
:101720001868C7F808A048F001025844BC42CAF83B
:101730000420186016D0B9F10F0F40F24C81616897
:10174000A9F10C0222F0070201F0010111436160CE
:101750004FF0050CA1180F2AC1E901CC00F25D8100
:10176000DAF804201E4B1968814238BF18601D4BFF
:101770001968814238BF1860544622F00308A84512
:10178000A8EB050301D30F2B06DC304600F070F9FF
:101790005DE7D7F804E028E7621943F0010345F05C
:1017A000010565603046BA60536000F061F90834A5
:1017B000204603B0BDE8F08FA2682344D1603046D4
:1017C0008A60A4E6DC68A3427FF498AE0230DCE6CF
:1017D0004001002050080020340100202008002093
:1017E0004C0800204808002048010020BCF5206F6C
:1017F0004FEA5C2272D3142A00F2C18002F15C032A
:101800001BB25B32DB00F918FB580839994203D14F
:1018100098E09B68994204D05A6822F0030262451E
:10182000F7D8D968C4E902318C60DC60DDE6BEF12E
:10183000140F60D9BEF1540F00F2AB804FEA153E91
:101840000EF16F0003B20EF16E0EDB0087E6D4F8E6
:1018500008C03046661945F001056560CCF80C30CB
:10186000C3F808C042F00103C7E90466C6E902886C
:101870007360625000F0FCF80834E9E62144304619
:101880004A6842F001024A6054F8082FD3609A6017
:1018900000F0EEF8DCE6A4443046DCF8043043F017
:1018A0000103CCF8043000F0E3F80834D0E6E8088F
:1018B000431C1BB2DB0019E6621943F0010145F03D
:1018C000010565603046C7E90422C2E9028851601B
:1018D00044F80C3000F0CCF80834B9E64FEA9C121A
:1018E00002F139031BB23832DB008CE7BC425CD01A
:1018F000BC68626841E70EF15C0003B20EF15B0E5A
:10190000DB002CE65AF80839534540F0A68010F069
:10191000030F00F1FF30F5D17B6823EA0C037B60F5
:101920004FEA4C0C9C453FF69DAEBCF1000F04D134
:1019300098E64FEA4C0C09F104091CEA030FF8D0B1
:10194000484665E692104FF0010C0CFA02F24EEA9E
:10195000020EC7F804E065E70AEB080202EA0C028F
:10196000ABEB020202EA0C0B5946304600F0ACF930
:10197000431C019B7FF4D0AEDDF800B0D0E6542AC2
:101980002DD84FEA1C3202F16F031BB26E32DB001E
:1019900039E7BEF5AA7F2DD84FEAD53E0EF1780083
:1019A00003B20EF1770EDB00D9E52D4B18684044E9
:1019B0000BF1FF3C18608DE61AEA0C0F7FF48AAE3B
:1019C000D7F808A0C84448F00102CAF80420C9E6C4
:1019D000C2F800A088E60123CAF80430D5E6B2F5C3
:1019E000AA7F25D84FEADC3202F178031BB27732A6
:1019F000DB0008E740F254539E4524D8AB0C03F1BA
:101A00007D0003F17C0EC300A9E5009A083A9044DA
:101A1000A8EB0A084FF0000B82E6304604F10801FB
:101A20000093FFF75BFC009BD7F808A0186897E6C7
:101A300040F254539A420CD84FEA9C4202F17D0383
:101A4000DB007C32DFE64FF47E737F204FF07E0EAA
:101A500085E54FF47E737E22D5E67B6860E700BFA4
:101A6000200800200148FFF7C9BB00BF1008002074
:101A70000148FFF7C5BB00BF1008002070B5002962
:101A80003FD006460C4610B1436B002B3CD0636E32
:101A9000B4F90C20DD0732D4900538D52146304604
:101AA00000F04CF8E36A054633B1E16930469847E7
:101AB0000028B8BF4FF0FF35A3891A0639D4216B2F
:101AC00041B104F14003994202D03046FFF706FCD1
:101AD00000232363616C21B13046FFF7FFFB002335
:101AE0006364FFF747FA636E0022DB07A2811CD50F
:101AF000A06DFFF781FBFFF743FA284670BD002A6F
:101B0000CCD10025284670BDFFF716FABFE7A06DBF
:101B1000FFF774FBB4F90C30002BBFD1636ED9070B
:101B2000EFD4A06DFFF76CFBEBE7A06DFFF768FB50
:101B3000DEE721693046FFF7D1FBC0E7B1F90C20A1
:101B40002DE9F041804610070C4650D4496842F414
:101B500000630029A38165DDA66A002E44D0002120
:101B600012F48052D8F80050C8F8001067D1E1692B
:101B700001234046B047411C02466ED0B4F90C30F8
:101B8000A66A5B0705D56368D21A236B0BB1E36BBA
:101B9000D21A0023E1694046B047471CB4F90C3023
:101BA0004FD1D8F800101D2942D8314ACA40D60773
:101BB0003ED52269226023F40062A281D9044FF04D
:101BC0000002626003D5D8F80030002B43D0216BAF
:101BD000C8F8005041B104F14003994202D0404698
:101BE000FFF77CFB002323630020BDE8F0810E6932
:101BF000002EF9D00D680E6092070CBF4B690023D0
:101C0000AD1B8B600BE02B463246E169676A4046AC
:101C1000B847B0F1000CA5EB0C05664406DD002DBD
:101C2000F1DCE1E7E16B002996DCDDE7B4F90C308B
:101C300043F04003A3814FF0FF30BDE8F081226DF7
:101C40009FE72269226023F40062A281DB044FF047
:101C500000026260BBD52065B9E7D8F80030002BE0
:101C60008CD01D2B01D0162BE0D1C8F80050BBE75B
:101C70000100402038B50C46054608B1436B03B35C
:101C8000B4F90C0088B1636EDB0701D481050FD570
:101C900028462146FFF752FF636EDA07054602D455
:101CA000A3899B0508D5284638BD0546284638BD7A
:101CB000A06DFFF7A3FAEBE7A06DFFF7A1FA2846A6
:101CC00038BDFFF739F9DBE738B5074D0022044688
:101CD00008462A6001F080FA431C00D038BD2B680A
:101CE000002BFBD0236038BD0C08002038B5074D11
:101CF000074C2C1BA41005D0013C55F8043D984717
:101D0000002CF9D1BDE8384007F05AB928940008F2
:101D100024940008082802D14FF48050704708B579
:101D200000F046F8162303604FF0FF3008BD00BFF7
:101D30002DE9F8431B4D0646286898460F46914604
:101D4000FFF75CFA184B1C681CB3286865681F2DE8
:101D500022DC4EB96B1C0235636044F82570FFF736
:101D60004FFA0020BDE8F88304EB85010123C1F898
:101D70008890D4F88821AB401A43022EC4F88821F9
:101D8000C1F80881E6D1D4F88C211A43C4F88C211B
:101D9000E0E7064C1C60D8E7FFF732FA4FF0FF305F
:101DA000E0E700BF300100201C080020540800209C
:101DB000014B1868704700BF0C00002080B489B048
:101DC00000AFF860B9607A60FB681A68BB687B6135
:101DD0007B6993FAA3F33B613B69B3FA83F3DBB20C
:101DE0005B00032101FA03F3DB431A40BB68FB618C
:101DF000FB6993FAA3F3BB61BB69B3FA83F3DBB26C
:101E00005B00796801FA03F31A43FB681A6000BFAC
:101E10002437BD465DF8047B704780B485B000AFC1
:101E2000F860B9607A60FB685A68BB68DB431A40A7
:101E3000BB68796801FB03F31A43FB685A6000BF73
:101E40001437BD465DF8047B704780B489B000AF9D
:101E5000F860B9607A60FB689A68BB687B617B69EF
:101E600093FAA3F33B613B69B3FA83F3DBB25B0004
:101E7000032101FA03F3DB431A40BB68FB61FB69F2
:101E800093FAA3F3BB61BB69B3FA83F3DBB25B00E4
:101E9000796801FA03F31A43FB689A6000BF24379C
:101EA000BD465DF8047B704780B489B000AFF86030
:101EB000B9607A60FB68DA68BB687B617B6993FA1A
:101EC000A3F33B613B69B3FA83F3DBB25B0003210D
:101ED00001FA03F3DB431A40BB68FB61FB6993FA29
:101EE000A3F3BB61BB69B3FA83F3DBB25B00796830
:101EF00001FA03F31A43FB68DA6000BF2437BD46DA
:101F00005DF8047B704780B489B000AFF860B960B9
:101F10007A60FB681A6ABB687B617B6993FAA3F3FA
:101F20003B613B69B3FA83F3DBB29B000F2101FAFB
:101F300003F3DB431A40BB68FB61FB6993FAA3F32D
:101F4000BB61BB69B3FA83F3DBB29B00796801FA2A
:101F500003F31A43FB681A6200BF2437BD465DF8DD
:101F6000047B704780B489B000AFF860B9607A60D4
:101F7000FB685A6ABB681B0A7B617B6993FAA3F30F
:101F80003B613B69B3FA83F3DBB29B000F2101FA9B
:101F900003F3DB431A40BB681B0AFB61FB6993FA3E
:101FA000A3F3BB61BB69B3FA83F3DBB29B0079682F
:101FB00001FA03F31A43FB685A6200BF2437BD4697
:101FC0005DF8047B704780B586B000AF78603960FB
:101FD0003B681B68FB60FB6893FAA3F3BB60BB68BC
:101FE000B3FA83F3DBB27B6148E03B681A680121F6
:101FF0007B6901FA03F313403B613B69002B3AD044
:102000003B685B68012B03D03B685B68022B0ED1F9
:102010003B689B681A4639697868FFF716FF3B688A
:1020200019683B68DB681A467868FFF7F6FE3B687C
:102030001B691A4639697868FFF736FF3B685B68A9
:10204000022B11D13B69FF2B07D83B685B691A460D
:1020500039697868FFF757FF06E03B685B691A4605
:1020600039697868FFF77EFF3B685B681A46396913
:102070007868FFF7A3FE7B6901337B613B681A68D0
:102080007B6922FA03F3002BAFD1002318461837DF
:10209000BD4680BD80B483B000AF78607B681B68AC
:1020A00043F001027B681A6000BF0C37BD465DF843
:1020B000047B704780B483B000AF78607B681B6896
:1020C00023F001027B681A6000BF0C37BD465DF843
:1020D000047B704780B485B000AFF860B9607A6067
:1020E000FB681B6823F4F8527B681902BB680B433A
:1020F0001A43FB681A6000BF1437BD465DF8047BC5
:10210000704780B485B000AFF860B9607A60FB6852
:102110009B6823F4FF6323F00703B9687A680A43D6
:102120001A43FB689A6000BF1437BD465DF8047B14
:10213000704780B483B000AF78607B689B6843F4DD
:1021400000427B689A6000BF0C37BD465DF8047B97
:10215000704780B483B000AF78607B689B6823F4DD
:1021600000427B689A6000BF0C37BD465DF8047B77
:10217000704780B483B000AF786039607B683A689C
:102180001A6100BF0C37BD465DF8047B704780B410
:1021900083B000AF786039607B681B6823F440121D
:1021A0003B681A437B681A6000BF0C37BD465DF878
:1021B000047B704780B483B000AF786039607B687F
:1021C0005B6823F400423B681A437B685A6000BF97
:1021D0000C37BD465DF8047B704780B582B000AF18
:1021E000786039607868FFF765FF3B6899683B68FD
:1021F000DB681A467868FFF76DFF3B685B68194635
:102200007868FFF7B6FF7868FFF744FF7868FFF754
:10221000A0FF3B6819693B689B691A467868FFF71D
:1022200070FF3B681B69002B02D07868FFF781FFC5
:102230003B681B6819467868FFF7A9FF3B685B6934
:1022400019467868FFF7B6FF002318460837BD46E1
:1022500080BD000080B400AF074B1B6803F48063AF
:10226000B3F5806F01D1012300E000231846BD467D
:102270005DF8047B704700BF0010024080B400AFDF
:10228000074BD3F8903003F00203022B01D1012356
:1022900000E000231846BD465DF8047B704700BF90
:1022A0000010024080B400AF064B1B6803F0080327
:1022B000082B01D1012300E000231846BD465DF83C
:1022C000047B70470010024080B400AF044B1B68D1
:1022D00003F0F0031846BD465DF8047B704700BF6D
:1022E0000010024080B400AF044BD3F8943003F4E4
:1022F00070631846BD465DF8047B704700100240CD
:1023000080B400AF044B9B6803F00C031846BD4635
:102310005DF8047B704700BF0010024080B400AF3E
:10232000044B9B6803F0F0031846BD465DF8047B40
:10233000704700BF0010024080B400AF044B9B68A0
:1023400003F4E0631846BD465DF8047B704700BFA8
:102350000010024080B400AF044B9B6803F460534C
:102360001846BD465DF8047B704700BF0010024070
:1023700080B483B000AF7860064BD3F888207B68C8
:102380001A407B681B04134318460C37BD465DF8A2
:10239000047B70470010024080B400AF044BDB6840
:1023A00003F003031846BD465DF8047B704700BF89
:1023B0000010024080B400AF044BDB681B0A03F03E
:1023C0007F031846BD465DF8047B7047001002404D
:1023D00080B400AF044BDB6803F0C0631846BD4611
:1023E0005DF8047B704700BF0010024080B400AF6E
:1023F000044BDB6803F070031846BD465DF8047BB0
:10240000704700BF0010024080B584B000AF786014
:102410000023FB607B68032B33D17868FFF7A8FFAC
:102420000346A3F54033032B75D801A252F823F0DD
:102430006B2400084124000849240008592400089E
:1024400000F07CF8F86071E0FFF704FF0346002B12
:1024500063D0394BFB6060E0FFF710FF0346002BB1
:102460005DD04FF40043FB6059E000F067F803468D
:10247000184600F0F3F80346184600F019F9F86022
:1024800054E07B680C2B51D17868FFF771FF03464D
:10249000A3F540230C2B44D801A252F823F000BF2F
:1024A000FF24000823250008232500082325000811
:1024B000D52400082325000823250008232500082B
:1024C000DD24000823250008232500082325000813
:1024D000ED24000800F032F8F86027E0FFF7BAFEBC
:1024E0000346002B1FD0144BFB601CE0FFF7C6FE19
:1024F0000346002B19D04FF40043FB6015E000F0B9
:102500001DF80346184600F0A9F80346184600F0E7
:10251000BBF8F8600AE000BF08E000BF06E000BFBB
:1025200004E000BF02E000BF00E000BFFB68184607
:102530001037BD4680BD00BF0024F40080B582B0D6
:1025400000AFFFF7DDFE03460C2B51D801A252F875
:1025500023F000BF89250008F1250008F1250008B7
:10256000F1250008DD250008F1250008F125000807
:10257000F1250008E3250008F1250008F1250008F1
:10258000F1250008E9250008FFF78CFE0346002B23
:1025900011D1FFF787FE0346002B04D0FFF794FE0E
:1025A00003461B0A03E0FFF79DFE03461B0A284A69
:1025B00052F8233010E0FFF775FE0346002B04D0DD
:1025C000FFF782FE03461B0903E0FFF78BFE03467D
:1025D0001B091F4A52F823307B6033E01D4B7B60A0
:1025E00030E01D4B7B602DE000F076F8786029E04C
:1025F000FFF758FE0346002B11D1FFF753FE0346A9
:10260000002B04D0FFF760FE03461B0A03E0FFF730
:1026100069FE03461B0A0E4A52F8233010E0FFF70A
:1026200041FE0346002B04D0FFF74EFE03461B0974
:1026300003E0FFF757FE03461B09054A52F8233013
:102640007B6000BF7B6818460837BD4680BD00BF71
:10265000349000080024F40000127A0080B582B0A3
:1026600000AF7860FFF75AFE03461B0903F00F0323
:10267000044AD35C1A467B68D34018460837BD46E7
:1026800080BD00BF1C90000880B582B000AF7860AC
:10269000FFF752FE03461B0A044AD35C1A467B68C6
:1026A000D34018460837BD4680BD00BF2C900008B7
:1026B00080B582B000AF7860FFF74CFE0346DB0ABE
:1026C000044AD35C1A467B68D34018460837BD4697
:1026D00080BD00BF2C90000890B583B000AFFFF71D
:1026E0005BFE38603B68032B36D03B68032B36D843
:1026F0003B68012B03D03B68022B2AD02FE0FFF769
:10270000D1FD0346002B11D1FFF7CCFD0346002B72
:1027100004D0FFF7D9FD03461B0A03E0FFF7E2FDF3
:1027200003461B0A2F4A52F8233010E0FFF7BAFD88
:102730000346002B04D0FFF7C7FD03461B0903E047
:10274000FFF7D0FD03461B09264A52F823307B6071
:102750002FE0254B7B602CE0244B7B6029E0FFF7CA
:10276000A1FD0346002B11D1FFF79CFD0346002B72
:1027700004D0FFF7A9FD03461B0A03E0FFF7B2FDF3
:1027800003461B0A174A52F8233010E0FFF78AFD70
:102790000346002B04D0FFF797FD03461B0903E017
:1027A000FFF7A0FD03461B090E4A52F823307B6059
:1027B00000BFFFF71BFE03461B0901337A68B2FB1B
:1027C000F3F4FFF7F7FD034603FB04F4FFF700FE05
:1027D00003465B0E01335B00B4FBF3F318460C3782
:1027E000BD4690BD349000080024F40000127A0029
:1027F00080B483B000AF78607B681B6803F040034F
:10280000402B01D1012300E0002318460C37BD46C0
:102810005DF8047B704780B483B000AF78603960A6
:102820007B685B6823F480523B681A437B685A607C
:1028300000BF0C37BD465DF8047B704780B483B0A1
:1028400000AF786039603B689BB21A467B681A61BA
:1028500000BF0C37BD465DF8047B704780B584B07F
:1028600000AF786039600123FB737868FFF7C0FF21
:102870000346002B45D17B681B6823F47F4323F07C
:10288000BF033A6811683A68526811433A68D268DF
:1028900011433A68126911433A68526911433A6820
:1028A000926911433A68D26911433A68126A0A433D
:1028B0001A437B681A607B685B6823F4706323F0BB
:1028C00004033A6891683A685269120C0A431A4341
:1028D0007B685A603B689B68B3F5006F04D24FF485
:1028E00080517868FFF797FF3B681B6AB3F5005F7C
:1028F00005D13B685B6A19467868FFF79FFF0023A4
:10290000FB73FB7B18461037BD4680BD80B483B097
:1029100000AF78607B681B6803F00103012B01D1D5
:10292000012300E0002318460C37BD465DF8047B08
:10293000704780B483B000AF786039607B685B68B3
:1029400023F440523B681A437B685A6000BF0C373F
:10295000BD465DF8047B704780B483B000AF7860FB
:1029600039607B689B6823F440723B681A437B683C
:102970009A6000BF0C37BD465DF8047B704780B499
:1029800087B000AFF860B9607A603B607B68B3F5F0
:10299000004F1AD1BB685A003B685B081A443B6879
:1029A000B2FBF3F39BB27B617A694FF6F07313408D
:1029B0003B617B695B089BB203F007033A691343F1
:1029C0003B61FB683A69DA600AE03B685A08BB6819
:1029D0001A443B68B2FBF3F39BB21A46FB68DA6019
:1029E00000BF1C37BD465DF8047B704780B584B0DE
:1029F00000AF786039600123FB730023BB60786807
:102A0000FFF784FF0346002B3FD17B681A68214BF8
:102A100013403A6851683A68D26811433A681269BB
:102A200011433A6892690A431A437B681A603B680B
:102A30009B6819467868FFF77CFF3B685B6919461D
:102A40007868FFF789FF7B68134A934204D103201B
:102A5000FFF7DAFCB86007E07B68104A934203D1C5
:102A60000C20FFF7D1FCB860BB68002B0DD03B6891
:102A70001B68002B09D00023FB733B689A693B68F5
:102A80001B68B9687868FFF77AFFFB7B1846103738
:102A9000BD4680BDF369FFEF0038014000440040AF
:102AA00080B483B000AF786039607A683B68B2FB6D
:102AB000F3F3074A013B5360054B00229A60044B35
:102AC00005221A6000BF0C37BD465DF8047B7047D5
:102AD00010E000E080B582B000AF78604FF47A710A
:102AE0007868FFF7DDFF00BF0837BD4680BD0000F6
:102AF00080B485B000AF7860104B1B68BB607B680A
:102B0000FB60BB68FB68B3F1FF3F0CD0FB6801338F
:102B1000FB6008E0094B1B6803F48033002B02D0F4
:102B2000FB68013BFB60FB68002BF3D100BF00BFDB
:102B30001437BD465DF8047B704700BF10E000E02D
:102B400080B483B000AF78607B681B6843F00102FB
:102B50007B681A6000BF0C37BD465DF8047B704788
:102B600080B483B000AF78607B681B6823F00102FB
:102B70007B681A6000BF0C37BD465DF8047B704768
:102B800080B485B000AF7860084B9A6D07497B68C8
:102B900013438B65054B9A6D7B681340FB60FB68A4
:102BA00000BF1437BD465DF8047B7047001002403B
:102BB00080B582B000AF786039607868FFF7D0FFE9
:102BC0007B68094A934203D14FF40010FFF7D8FF06
:102BD00039687868FFF701FB7868FFF7B1FF00BF3D
:102BE0000837BD4680BD00BF0054004080B483B0AC
:102BF00000AF78607B681B6843F040027B681A6016
:102C000000BF0C37BD465DF8047B704780B483B0CD
:102C100000AF78607B681B6823F040027B681A6015
:102C200000BF0C37BD465DF8047B704780B485B0AB
:102C300000AF7860084B9A6D07497B6813438B653A
:102C4000054B9A6D7B681340FB60FB6800BF14372F
:102C5000BD465DF8047B70470010024080B485B02B
:102C600000AF7860084B1A6E07497B6813430B6608
:102C7000054B1A6E7B681340FB60FB6800BF14377E
:102C8000BD465DF8047B70470010024080B582B0FD
:102C900000AF786039607868FFF7B8FF7B680D4A4D
:102CA000934204D14FF48050FFF7D8FF07E07B68D0
:102CB000094A934203D14FF40040FFF7B7FF396848
:102CC0007868FFF7CBFD7868FFF790FF00BF083703
:102CD000BD4680BD00300140003C004080B400AFE4
:102CE000054B1B68044A43F00203136000BFBD4656
:102CF0005DF8047B704700BF10E000E080B500AFD6
:102D00000348FFF7E7FEFFF7E9FF00BF80BD00BF04
:102D100000093D0080B582B000AF78607868FFF7A9
:102D2000E7FE00BF0837BD4680BD000080B485B017
:102D300000AF7860084B9A6D07497B6813438B6539
:102D4000054B9A6D7B681340FB60FB6800BF14372E
:102D5000BD465DF8047B70470010024080B485B02A
:102D600000AF7860084B1A6E07497B6813430B6607
:102D7000054B1A6E7B681340FB60FB6800BF14377D
:102D8000BD465DF8047B70470010024080B483B0FC
:102D900000AF78607B681B6843F001027B681A60B3
:102DA00000BF0C37BD465DF8047B704780B483B02C
:102DB00000AF78607B68DB6903F08003802B01D172
:102DC000012300E0002318460C37BD465DF8047B64
:102DD000704780B483B000AF78600B46FB70FA7820
:102DE0007B689A6200BF0C37BD465DF8047B704774
:102DF00080B582B000AF786039607B680D4A93423D
:102E000004D14FF48040FFF7A9FF07E07B680A4A2E
:102E1000934203D14FF40030FFF788FF3968786898
:102E2000FFF7E4FD7868FFF7B1FF00BF0837BD4644
:102E300080BD00BF003801400044004080B582B032
:102E400000AF78600B46FB7000BF7868FFF7AEFFFD
:102E50000346002BF9D0FB7819467868FFF7B9FFD5
:102E600000BF0837BD4680BD80B485B000AF786034
:102E7000084BDA6C07497B681343CB64054BDA6C6B
:102E80007B681340FB60FB6800BF1437BD465DF8EC
:102E9000047B70470010024080B489B000AFF86036
:102EA000B9607A60FB68DA68BB687B617B6993FA1A
:102EB000A3F33B613B69B3FA83F3DBB25B0003210D
:102EC00001FA03F3DB431A40BB68FB61FB6993FA29
:102ED000A3F3BB61BB69B3FA83F3DBB25B00796830
:102EE00001FA03F31A43FB68DA6000BF2437BD46DA
:102EF0005DF8047B7047000080B590B000AF07F12B
:102F00001803282200211846FEF7AAF84FF482730E
:102F1000FB614FF4E0633B624FF40073FB620220FD
:102F2000FFF7A2FF3B4600221A605A609A60DA60FF
:102F30001A615A6138233B6002237B600223BB6025
:102F40000023FB6006237B613B4619461648FFF7CA
:102F50003AF80120FFF788FF4FF400633B6001233C
:102F60007B600223BB600023FB6001233B613B4687
:102F700019464FF09040FFF726F801224FF4006108
:102F80004FF09040FFF788FF012210210648FFF71D
:102F900083FF07F1180319460448FFF777FE00BFC7
:102FA0004037BD4680BD00BF00040048003C0040E3
:102FB00080B500AFFFF7A2FE00BF80BD80B500AFB7
:102FC000FFF7F6FF074BD3F88830064A43F4700347
:102FD000C2F88830BFF34F8F00BFBFF36F8F00BFC1
:102FE00000BF80BD00ED00E080B58EB000AF0120D5
:102FF000FFF73AFF07F1200300221A605A609A6037
:10300000DA601A615A614FF4C0633B6202237B624B
:103010000223BB620123FB6201233B6304237B6326
:1030200007F1200319460B48FEF7CDFF3B1D002298
:103030001A605A609A60DA601A615A619A61064BA6
:10304000BB603B1D19460548FFF7B2FD00BF38378E
:10305000BD4680BD00040048140D1000005400401F
:10306000B0B58EB000AF0120FFF7FEFE07F12003E0
:1030700000221A605A609A60DA601A615A61042369
:103080003B6202237B620223BB620023FB620023BC
:103090003B6307237B6307F1200319464FF0904001
:1030A000FEF791FF4FF400433B6202237B62022351
:1030B000BB620023FB6200233B6303237B6307F1B6
:1030C000200319464FF09040FEF77DFF084B3C1D52
:1030D0001D460FCD0FC495E8070084E807003B1D8F
:1030E00019460448FFF784FE00BF3837BD46B0BD1F
:1030F000D08F000800440040B0B5A6B004AFFFF781
:103100005DFFFFF755FFFFF7F7FEFFF76DFFFFF7D6
:10311000A7FF07F1680000230022002100F030F92A
:1031200007F16803184600F096F907F1680318469E
:1031300000F0DEF907F16803184600F025FA07F100
:103140006803184600F046FABB6F1846FDF7BCF955
:1031500004460D46D7F880301846FDF7B5F902460B
:103160000B46381DCDE90223CDE90045114A642103
:1031700000F034FB0023C7F884300DE03A1DD7F887
:10318000843013441B7819460B48FFF757FED7F8D5
:1031900084300133C7F884303B1D1846FDF790FAA0
:1031A0000246D7F884309342E8D34FF47A70FFF7A1
:1031B000B1FDBAE7EC8F00080044004080B400AFD6
:1031C000044B1B680133034A136000BFBD465DF822
:1031D000047B7047E409002080B586B000AF7860BA
:1031E000144A154BD31A7B617B693B61134B1B68F7
:1031F000002B02D1114B124A1A60104B1A687B68DF
:1032000013443A699A4207D2FEF7D2FD03460C22D4
:103210001A604FF0FF3309E0084B1B68FB60074B57
:103220001A687B681344054A1360FB681846183710
:10323000BD4680BD0000012000040000E809002018
:10324000F009002080B400AF154BD3F88830144A41
:1032500043F47003C2F88830124B1B68114A43F0E4
:10326000010313600F4B00229A600E4B1B680D4A3E
:1032700023F0A85323F4102313600A4B4FF4805219
:10328000DA60084B1B68074A23F480231360054B60
:1032900000229A6100BFBD465DF8047B704700BF05
:1032A00000ED00E00010024080B584B000AF78600F
:1032B000396071233B737B689B6807F10C01012225
:1032C000382098470346FB7397F90F30012B02D043
:1032D00097F90F3009E07B685B6801223968382074
:1032E00098470346FB7397F90F3018461037BD46D1
:1032F00080BD000080B584B000AF78600023FB7310
:103300001E4A07F10C031268114619800233120C91
:103310001A707B689B6807F10C01032238209847DC
:103320000346FB7397F90F30012B02D097F90F304A
:1033300020E07B681B680A2098470023FB7212E09C
:103340007B681B680120984707F10B0319467868D2
:10335000FFF7AAFF0346FB7397F90F30012B02D04A
:1033600097F90F3006E0FB7A03F00803002BE7D053
:1033700097F90F3018461037BD4680BD14900008ED
:1033800080B586B000AFF860B9607A603B60BB681A
:10339000002B05D07B68002B02D03B68002B09D1A5
:1033A000FB68154A1A60FB68144A5A60FB68144AA5
:1033B0009A600EE03B687A68B968F86800F022F815
:1033C0000346FB7597F91730012B02D097F9173098
:1033D0000EE0FB684FF000029A61FB6800225A6120
:1033E000FB684FF000021A61FB680022DA600123DB
:1033F00018461837BD4680BD153600082B36000824
:103400004936000880B485B000AFF860B9607A60D2
:103410003B60BB68002B02D16FF0030315E07B68B3
:10342000002B02D16FF003030FE03B68002B02D1A9
:103430006FF0030309E0FB68BA681A60FB687A68FA
:103440005A60FB683A689A60012318461437BD46F3
:103450005DF8047B704780B584B000AF78607B680E
:103460001B68002B02D16FF003033DE07B685B68B3
:10347000002B02D16FF0030336E07B689B68002BC2
:1034800002D16FF003032FE07B681B682820984768
:103490000023BB7307F10E0319467868FFF704FF9A
:1034A0000346FB737868FFF725FF0346FB7397F924
:1034B0000F30012B02D097F90F3015E0BB7B03F0E2
:1034C0000803002B0ED17868FFF714FF0346FB7347
:1034D00097F90F30012B02D097F90F3004E097F9DC
:1034E0000F3001E097F90F3018461037BD4680BD08
:1034F00080B586B000AF78600023FB75214A07F1E4
:1035000014031268114619800233120C1A707B687A
:103510009B6807F114010322382098477B681B68D9
:103520005020984703E07B681B680120984707F10B
:10353000170319467868FFF7B7FE0346002BF2DB46
:103540007B685B6807F10C010722382098477B7B7A
:103550001A03BB7B1B011343FA7B1209D2B21A4335
:103560007B685A61FB7B1B0403F470223B7C1B02CB
:1035700013437A7C1A437B68DA6000BF1837BD4674
:1035800080BD00BF1890000880B483B000AF7860A1
:103590007B68DB6807EE903AB8EE677ADFED0A6A7F
:1035A000C7EE267A9FED097A67EE877A9FED087A53
:1035B00077EEC77A7B68C3ED047A00BF0C37BD464F
:1035C0005DF8047B704700BF00008049000048435D
:1035D0000000484280B483B000AF78607B685B69CC
:1035E00007EE903AB8EE677ADFED086AC7EE267A02
:1035F0009FED077A67EE877A7B68C3ED067A00BF96
:103600000C37BD465DF8047B704700BF0000804961
:103610000000C84280B483B000AF786000BF184695
:103620000C37BD465DF8047B704780B483B000AFB3
:1036300003463960FB711346BB7100BF18460C3757
:10364000BD465DF8047B704780B483B000AF03468D
:103650003960FB711346BB7100BF18460C37BD467D
:103660005DF8047B704780B400AF01231846BD4667
:103670005DF8047B704780B582B000AF7860396038
:10368000FEF796FB034616221A604FF0FF331846EA
:103690000837BD4680BD80B582B000AF78604FF07E
:1036A000FF317868FFF7E7FF00BFFDE780B586B020
:1036B00000AFF860B9607A6000237B610AE0AFF385
:1036C00000800146BB685A1CBA60CAB21A707B6996
:1036D00001337B617A697B689A42F0DB7B6818462C
:1036E0001837BD4680BD80B586B000AFF860B960C0
:1036F0007A6000237B6109E0BB685A1CBA601B78C2
:103700001846AFF300807B6901337B617A697B687F
:103710009A42F1DB7B6818461837BD4680BD80B4FD
:1037200083B000AF78604FF0FF3318460C37BD46CA
:103730005DF8047B704780B483B000AF7860396077
:103740003B684FF400525A60002318460C37BD46C0
:103750005DF8047B704780B483B000AF78600123CC
:1037600018460C37BD465DF8047B704780B485B0C1
:1037700000AFF860B9607A60002318461437BD4680
:103780005DF8047B704700000D488546FFF75AFD41
:103790000C480D490D4A002302E0D458C4500433AC
:1037A000C4188C42F9D30A4A0A4C002301E0136082
:1037B0000432A242FBD3FDF7F5FCFFF79DFCFEE7C8
:1037C0000000012000000020B4060020289400081A
:1037D000B4060020EC090020FEE700000CB410B590
:1037E000214B00291C689CB038DB4FF000034FF4DC
:1037F00002721B93ADF81420029006901FAB18D0F4
:1038000001394FF6FF7204910791ADF8162002A915
:103810001E9A0193204600F02BF8421C01DA8B23FC
:103820002360029B00221A701CB0BDE8104002B059
:1038300070474FF6FF7204910791ADF8162002A968
:103840001E9A0193204600F013F8431C01DA8B23E3
:1038500023601CB0BDE8104002B070478B2323608A
:103860004FF0FF30F5E700BF0C0000200000000023
:103870002DE9F04FD3B00C46059192460C9307907A
:1038800002F090F8036814931846FCF719FFA38917
:1038900013901D0603D52369002B01F0BE80002381
:1038A00056469E46CDE927339FED6F7B29AB269385
:1038B00099463378CDF854E0CDE917EE8DED107BC5
:1038C000CDF858E0CDF820E0CDF838E0002B00F03E
:1038D0004D81354604E015F8013F002B00F08E8045
:1038E000252BF8D1AC1B40F08C802B78002B00F0FE
:1038F0003D8100234FF0FF3295F801808DF87B3039
:103900000693013504929A460135A8F120035A2BFB
:1039100000F2AE80DFE813F03804AC00AC003204F3
:10392000AC00AC00AC001204AC00AC00A302BE02C0
:10393000AC00AE024A04AC0044045B005B005B00D8
:103940005B005B005B005B005B005B00AC00AC00FD
:10395000AC00AC00AC00AC00AC003601AC006802BE
:10396000A504360136013601AC00AC00AC00AC0059
:103970000C04AC00AC00BE03AC00AC00AC007C029C
:10398000AC006804AC00AC00EB07AC00AC00AC00D1
:10399000AC00AC00AC00AC00AC003601AC0068027E
:1039A0007801360136013601C40278016D00AC00A1
:1039B000E002AC00D102AB0380036D00AC007C02DE
:1039C0006A00ED02AC00AC005908AC006A00A8F136
:1039D0003003002215F8018B02EB820203EB420256
:1039E000A8F13003092BF5D906928EE795F80080EF
:1039F0008AE795F800804AF0200A85E7AC1B00F0C2
:103A0000B580279A289B01322344072AC9E900641C
:103A10002893279205DC09F10809089B23440893A1
:103A200063E70599079826AA01F05CFF80B90DF1BC
:103A3000A409F2E70599079826AA01F053FF002888
:103A400000F08580099B1BB109990798FDF746FC9A
:103A5000059B9B895B0601F13A87089853B0BDE846
:103A6000F08F00BFAFF300800000000000000000F6
:103A7000B8F1000F7AD0002301228DF8E4808DF890
:103A80007B3009930A92049312930F930D9339AEEE
:103A90000392289C1AF08403A64600F0F5809DF856
:103AA0007B2022B32798002701300DF17B020134DF
:103AB000C9F8002007284FF00102CDE92704C9F812
:103AC000042000F3CD8409F1080987B1279801305B
:103AD0001FAA0234C9F8002007284FF00202CDE9DE
:103AE0002704C9F8042000F3AC8409F10809802BED
:103AF00000F0D583049B0A9A9F1A002F00F3D5800B
:103B00001AF4807F40F011810A9BC9F804301C44EC
:103B1000279BC9F800600133072B2894279300F3F3
:103B2000378409F108091AF0040F05D0069B039A9F
:103B30009E1A002E00F3A384089B069A03998A42DA
:103B4000ACBF9B185B180893002C7FF473AF002365
:103B50002793099B1BB109990798FDF7BFFB0DF14E
:103B6000A4092E463378002B7FF4B3AE289B002B9C
:103B70003FF46EAF059C079826AA214601F0B2FEDD
:103B8000A38967E70C9B073323F00703B3EC027BA1
:103B90008DED107B0C93119B8DED1A7A23F0004371
:103BA0001B93DDE91A01B64B4FF0FF32FDF7E2F847
:103BB000002840F02586DDE91A01B14B4FF0FF32B5
:103BC000FDF7BAF80446002840F01A86DDE9100136
:103BD000002200232AF0800AFDF7A4F8002841F013
:103BE00075819DF87B30B8F1470FCCBFA54EA64E2E
:103BF000002B41F0C385032209930A920493129388
:103C00000F930D93039244E71AF0200F00F0E6851E
:103C10000C9B073323F007031A465B6852F8084BE6
:103C20000C921F46002BC0F22D83049A002A05DB5C
:103C300054EA07032AF0800A00F0D8860A2C77F1AC
:103C4000000380F0768104F13003DBB2049A8DF832
:103C50004731012AB8BF012203929DF87B3001222F
:103C60000A920DF24716002B00F0F480039B289C6B
:103C7000013303930023099312930F930D931AF0CA
:103C80008403A6467FF40BAF069A0398171A002FF9
:103C900000F3F7849DF87B20002A7FF403AF049B98
:103CA0000A9A9F1A002F7FF72BAF102F279ADFF861
:103CB000DCB129DD494620460495079C059D10236B
:103CC000B14604E0103F102F01F1080118DD013268
:103CD0006E4E1030072AC1E90063CDE92720F1DDDF
:103CE00026AA2946204601F0FDFD00287FF4AAAE51
:103CF000103F102FDDE9272029A94FF01003E6DC43
:103D0000049D4E460446894601323C44072ACDE9CB
:103D10002724C9F800B0C9F8047000F326851AF406
:103D2000807F09F108093FF4EFAEB8F1650F40F369
:103D30003C83DDE9100100220023FCF7E9FF0028A5
:103D400000F0DE83279B524AC9F80020013301347A
:103D50000122072B28942793C9F8042000F3B68783
:103D600009F10809209B0E9A934280F22585139B46
:103D7000149A1C44C9E90023279B28940133072B7C
:103D8000279300F33D8609F108090E9B5E1E002E65
:103D90007FF7C9AE102E279BDFF8F0B040F3A7875E
:103DA00059462246AB46DDF81C80059C10270D467F
:103DB00005E009F10809103E102E40F39487013305
:103DC0001032072BC9E90057CDE92732F1DD26AAC9
:103DD0002146404601F086FD00287FF433AEDDE940
:103DE00027320DF1A409E6E70C9B002210460121C1
:103DF0008DF87B20099253F8042B8DF8E4200C9366
:103E00000A91049012900F900D9039AE039140E604
:103E10000C9C049B54F8046B00278DF87B70002EDB
:103E200000F0AE87002BC0F207861A4639463046AE
:103E3000FCF7B6FC9DF87B300990002801F04E831A
:103E4000821B0A9222EAE2720392002B40F0008663
:103E500004930C94099312930F930D9319E60C9B02
:103E600053F8042B0692002A80F2AC84069A0C9335
:103E70005242069295F800804AF0040A44E500BFD9
:103E8000FFFFEF7F6890000864900008D091000861
:103E9000A49000082B2395F800808DF87B3033E543
:103EA00095F80080B8F1680F03BF95F801804AF4D7
:103EB000007A01354AF0400A26E50C9A1AF0200FE4
:103EC00002F1040300F00185126808991160C91716
:103ED00051600C932E4645E695F80080B8F16C0FC2
:103EE00003BF95F801804AF0200A01354AF0100A14
:103EF0000AE51AF0200F40F092810C9A1AF0100790
:103F000052F8043B41F040831AF0400100F0A387CF
:103F10009CB2049B8DF87B70002B04DB2AF0800A96
:103F2000002C00F077810A2C77F100030C92FFF44B
:103F30008AAE0AF480630022CDE909980395DFF880
:103F4000D0B6DDF85C8052A996461D4623E0E31901
:103F500043F10003ABFB032020F0030202EB9002CD
:103F60009B1AE31A4FF0CC32A146BC4602FB03F287
:103F700067F100070BFB0722A3FB0B43B9F10A0F04
:103F800013444FEA54047CF1000C314644EAC374F4
:103F90004FEA53072BD3E31943F10003ABFB032094
:103FA00020F0030202EB90029B1AE31AA3FB0B32F0
:103FB00067F100005B080BFB002243EAC27303EBCE
:103FC0008303A4EB430330330EF1010E01F8013CEF
:103FD0004E1E002DBBD098F800307345B7D1BEF10E
:103FE000FF0FB4D00A2C77F1000380F08C8752AB1E
:103FF0000499039DCDF85C809B1B1A469142B8BF83
:104000001146DDF82880DDF824900A93CDF838E0D9
:104010009DF87B30039126E60C9A049E52F8040B1F
:10402000002147F630038E42ADF87C308DF87B10CE
:104030000346C0F2D0842AF0800444F0020A00282B
:1040400040F09686002E00F0B5870C9230230122B6
:10405000039609908DF8473184460A920D904FF0EF
:1040600078080F9012900DF2471600F096BC1AF0E7
:10407000200F40F027840C9A1AF0100152F8043BEC
:1040800041F093821AF0400000F0DC869BB20C9263
:1040900050460EE01AF0200F4AF0100000F00A849B
:1040A0000C9B073323F007031A46596852F8083B64
:1040B0000C9200228DF87B20049A002A17DB53EA29
:1040C000010220F4906A14D1049A92B910F001020E
:1040D000039200F0E28530238DF84731049B0A9269
:1040E00012930F930D9309930DF24716D1E420F428
:1040F000806A52AE03F00702DB0843EA4173C90845
:10410000303253EA0104304606F8012DF2D11AF09C
:1041100001030D9340F09D820499129352AA921BC1
:104120009142B8BF11460A9203910F930993B0E4EC
:1041300095F800804AF0080AFFF7E6BB079F38466B
:1041400001F030FC436816931846FCF7B9FA189052
:104150000446384601F026FC836895F800801793E2
:10416000002C3FF4D1AB002B3FF4CEAB1B78002BDF
:104170003FF4CAAB4AF4806AFFF7C6BB95F80080EB
:104180004AF0010AFFF7C0BB9DF87B3095F800802C
:10419000002B7FF4B9AB20238DF87B30FFF7B4BB45
:1041A00095F800804AF0800AFFF7AEBB294611F867
:1041B000018BB8F12A0F01F06183A8F13003092BBC
:1041C00098BF002201F2998111F8018B02EB820263
:1041D00003EB4202A8F13003092BF5D942EAE2735E
:1041E00004930D46FFF791BB1AF0200F4AF010011F
:1041F00016D10C9B1A1D0C9B04981B680027B84213
:104200008DF87B701C46C0F2E28321F0800A002BFF
:104210007FF489AE049B0C92DBB1002413E5514678
:104220000C9B073323F007031A465F6852F8084BCC
:104230000C9200238DF87B30049B002BC0F2C883C6
:1042400054EA070321F0800A7FF4F8AC049B002BAA
:10425000E3D10A9312930F930D930393099352AEF4
:1042600017E41AF0200F4AF0100340F0B4820C9AC1
:1042700004320C990C920C68E7179A463B46002BC7
:10428000BFF6D3AC2D238DF87B30049B644267EBE3
:104290004707002BFFF6D2AC2AF0800ACEE4069B3B
:1042A000039A9F1A002F7FF725AC102F279ADFF86B
:1042B00064B32BDD49462046B1465C462E46DDF808
:1042C0001CB0059D102304E0103F102F01F10801E0
:1042D00017DD01321030072AC1E90043CDE927205C
:1042E000F2DD26AA2946584601F0FCFA00287FF4A0
:1042F000A9AB103F102FDDE9272029A94FF01003AB
:10430000E7DC3546A3464E460446894601323C4426
:10431000072ACDE92724C9F800B0C9F8047000F3D2
:10432000108509F10809FFF7E5BB279BB74AC9F8D3
:104330000020013301340122072B28942793C9F868
:10434000042000F3268609F10809002940F0408581
:104350000E9A0AF0010313433FF4E5AB139B149943
:104360001A19C9E90013279B28920133072B2793B9
:1043700000F39C8609F108090E99C9F80060013321
:104380008C18072BCDE92734C9F804107FF7C9AB87
:104390000599079826AA01F0A5FA00287FF452ABE8
:1043A000289C0DF1A409FFF7BEBB0E9B279F012B94
:1043B00004F1010407F1010709F1080840F32E8117
:1043C0000123072FCDE92774C9F80060C9F804302C
:1043D00000F3D881139B149A01371C44072FC8E9B6
:1043E0000023CDE9277400F3DA8108F108080E9B59
:1043F000DDE9100103F1FF3900220023FCF788FCFE
:10440000002840F08581013701364C44072FCDE963
:104410002774C8F80060C8F8049000F30D8108F113
:104420000808159BC8F8043001371C44072F22AB3D
:10443000CDE92774C8F80030AADC08F10809FFF7B5
:1044400072BB05990798199326AA01F04BFA002828
:104450007FF4F8AA289C199B0DF1A409FFF747BB2C
:1044600005990798199326AA01F03CFA00287FF4D1
:10447000E9AA289C199B0DF1A409FFF726BB102E71
:10448000279BDFF894B127DD5A46DDF81C80DDF864
:1044900014A0AB461027154604E0103E102E09F17B
:1044A000080916DD01331034072BC9E90057CDE99F
:1044B0002734F2DD26AA5146404601F013FA0028BF
:1044C0007FF4C0AA103E102EDDE927340DF1A409B7
:1044D000E8DC2A465D46934601333444072BC9E99C
:1044E00000B6CDE927347FF727AB0599079826AAB0
:1044F00001F0F8F900287FF4A5AA289CFFF71CBB5F
:10450000209900297FF711AFDDE90D329342A8BF52
:104510001346002B98460BDD1C44C9E90063279B1A
:1045200028940133072B279300F3698609F10809C2
:104530000D9FB8F1000FA8BFA7EB0807002F00F3ED
:104540008D820D9B1AF4806F33449B4640F0AF82FE
:10455000209A0E9B9A4203DB1AF0010F00F0378578
:10456000139B14991C44C9E90013279B2894013319
:10457000072B279300F3678709F108090E9BF718AB
:10458000A7EB0B079E1AB742A8BF3746002F0DDDD9
:10459000279BC9F800B001333C44072BC9F80470CD
:1045A0002894279300F3B38709F10809002FA8BFC7
:1045B000F61B002E7FF7B7AA102E279BDFF854B00A
:1045C00040F3958359462246AB46DDF81C80059C96
:1045D00010270D4605E009F10809103E102E40F3A2
:1045E000828301331032072BC9E90057CDE9273206
:1045F000F1DD26AA2146404601F074F900287FF437
:1046000021AADDE927320DF1A409E6E7A49000080C
:10461000CDCCCCCCD0910008E09100081AF0010F6D
:104620007FF4CEAE0123072FCDE92774C9F80060CF
:10463000C9F804307FF7F5AE0599079826AA01F06E
:1046400051F900287FF4FEA9DDE927740DF1A408D3
:10465000E7E6302A00F058833023049906F8013C3D
:10466000023852AB1B1A99424FF00002B8BF1946EC
:1046700009920A930646039112920F920D92FFF748
:1046800008BA279ADFF854B5102F714629DD19951D
:1046900048465D46C146B3461024079E984604E04E
:1046A000103F102F00F1080015DD01321031072AEC
:1046B000C0E90054CDE92721F2DD059926AA30464C
:1046C00001F010F900287FF4BDA9103F102FDDE99B
:1046D000272129A8E9DC5E46AB46199D4346C8461A
:1046E0008146501C7C180728CDE92704C9F800B082
:1046F000C9F8047000F3BA829DF87B2009F108091B
:10470000002A64D1002B3FF4F5A91346FFF7DFB967
:104710000E9B012B7FF785AE112BDFF8BCB440F365
:104720004B83224610265C46D346AA46059D07E0E9
:1047300008F10808A9F11009B9F1100F40F3388306
:1047400001371032072FC8E90046CDE92772EFDDA7
:10475000079826AA294601F0C5F800287FF472A917
:10476000DDE927720DF1A408E4E70599079826AA68
:1047700001F0B8F800287FF465A9289C0DF1A40980
:10478000FFF7BEB90599079826AA01F0ABF80028F3
:104790007FF458A9DDE927740DF1A4081AE60599FC
:1047A000079826AA01F09EF800287FF44BA9DDE9BE
:1047B00027740DF1A4081AE61AF0010F3FF4B3A90B
:1047C000FFF7D5BA95F800800C93FFF79DB81F4608
:1047D0000023FFF769B99A46FFF71ABA0C9A1AF044
:1047E000100F52F8044B40F0DD861AF0400F0C9287
:1047F00000F0488344F3C0373B4624B2FFF712BAB7
:10480000DDE9100102460B46FCF7B4FA83460028A6
:1048100040F05987B8F1610F00F0FE84B8F1410F04
:1048200000F08586049B013300F04E84B8F1670FD9
:10483000119B4AF4807700F0F386B8F1470F00F03F
:10484000EF860990DDE91012002AC0F2B1869DEDD5
:10485000107B8DED1C7B4FF0000BA8F14103252B45
:1048600000F2C283DFE813F00007C003C003C003F7
:104870004404AF04C003C003C003C003C003C003AB
:10488000C003C003C003C003C003C003C003C00310
:10489000C003C003C003C003C003C003C003C00300
:1048A000C003C003C003C0030007C003C003C003AC
:1048B0004404AF040C9B1A1D0C9B0C921B68002136
:1048C000FFF7F7BB5046FFF7EBBB1AF0100F40F0B5
:1048D00045821AF0400F40F0D5831AF4007F00F0B3
:1048E0003D820C9A089912681170FFF7F2BAB84C21
:1048F0000C9A1AF0200100F09681073222F007028C
:10490000516852F8083B1AF0010000F0698153EA3F
:10491000010000F0CB8130208DF87C0000208DF864
:104920007B0004988DF87D800028C0F294812AF4E1
:10493000906040F0020A03F00F00265C0AF00200CB
:104940000C921B0943EA01730A0953EA11118DF80D
:1049500047610DF247160BD003F00F011B09615C94
:1049600006F8011D43EA0273120953EA0201F3D16A
:10497000049A52AB9B1B9A424FF0000CB8BF1A46E8
:104980000A930392CDF824C0CDF848C0CDF83CC0BE
:10499000CDF834C000283FF47CA8039BDDE9270450
:1049A000023303931AF08403A646024604D1069FFD
:1049B00003997F1A002F06DCBCF1000F3FF487A893
:1049C0000227FFF771B802235CE6824C90E70C9255
:1049D0008A46FFF733B97F4C0C9200F00F024AF081
:1049E000020AA65C02204FF07808AAE7002A40F0ED
:1049F000DE829DF87B3003920A9252AEFFF733B904
:104A00000599079826AA00F06DFF00287FF41AA8E0
:104A1000289C0DF1A409FFF7B8B907984021FCF7CD
:104A200055FD059B18601861002800F04D87059A18
:104A300040235361FEF733BF3046FBF741FE9DF83C
:104A40007B300A9020EAE0720392002B3FF400AA28
:104A500001323B4604970392FFF7FBB9102F279BC7
:104A6000DFF874B140F323824A462146B146079CE1
:104A70005E464FF01008AB46059D04E00832103F3B
:104A8000102F40F30F8201331031072BC2E9006869
:104A9000CDE92731F2DD26AA2946204600F022FF83
:104AA00000287EF4CFAFDDE9273129AAE7E70E9B86
:104AB000DDF84880CDF864A0F31804930F9BDDF86F
:104AC0005CA00D95002B5F464A462146DDF81CB0E0
:104AD000189CDDF81490129631DDB8F1000F40F308
:104AE000EF8008F1FF382798169B013021440728F2
:104AF000C2E900342891279000F3A2800832049B79
:104B00009AF80000DE1B8642A8BF0646002E0CDD88
:104B10002798013031440728C2E900762891279070
:104B200000F302819AF800000832002EACBF851B0A
:104B30000546002D15DC07440F9B002BCDDCB8F19A
:104B4000000FCEDC129E0E9BCDF85CA0F3189F42A6
:104B5000BB460D9DDDF864A091460C4628BF9B46E0
:104B6000F6E4102D27981C4B23DD0A9410262C46C2
:104B70001D4604E0103C102C02F1080216DD013045
:104B8000154B10310728C2E90036CDE92701F1DDC8
:104B900026AA4946584600F0A5FE00287EF452AFEA
:104BA000103C102CDDE9270129AAE8DC2B4625461C
:104BB0000A9C1360013029440728CDE9270155607C
:104BC00000F30F839AF8000008320744B4E700BFEF
:104BD0008890000874900008D0910008E0910008C7
:104BE0008DF87B000498002837DB53EA01002AF493
:104BF000906A7FF4A0AE0499002900F0B580237874
:104C00008DF8473101294FF000030C92B8BF012104
:104C10000122099303910A9212930F930D930DF2BF
:104C20004716FEF736BF1AF0100052F8043B7FF427
:104C30006AAE1AF0400600F02F819BB2014662E690
:104C400026AA4946584600F04DFE00287EF4FAAEEA
:104C5000289929AA53E74AF0020A0C9203F00F029E
:104C60000AF00200A65C2AF4806A6AE605990798B1
:104C7000199326AA00F036FE00287EF4E3AE9DF8D4
:104C80007B20289C199B002A00F089801F460DF18B
:104C9000A40903462798FEF707BF049B0A931293C3
:104CA0000F930D93099352AEFEF7F3BE049B0020C1
:104CB00083428DF87B00C0F21D812AF4906A9AE746
:104CC0000F9B013B0AF1FF3A0F930CE705990798F8
:104CD00026AA00F007FE00287EF4B4AE289C0DF151
:104CE000A409FFF73FB814462A465D4693460133B0
:104CF0003444072BC9F800B0C9F80460CDE9273463
:104D00007EF70FAFFFF744BB049952AA921B914262
:104D10004FF00003B8BF114609930A920391129312
:104D20000F930D93FEF7B5BE26AA4946584600F0EC
:104D3000D9FD00287EF486AE9AF80000289929AAA9
:104D4000F3E60599079826AA00F0CCFD00287EF42A
:104D500079AE289C0DF1A409FEF7CCBE0C9A0899F7
:104D600012681160FFF7B5B8049B0C92FFF771BA97
:104D700000F00F00BE4C4FF07808265C0220DFE503
:104D8000062B324628BF0623CDE909630496039318
:104D9000B84E0C9412920F920D92FEF77ABE002B31
:104DA00000F01E81279813460DF1A409FEF78FBE6F
:104DB0005546DA46A346144601374C44072FCDE941
:104DC0002774C8F800B0C8F804907FF728AB33E424
:104DD000139B14981A19C9E90003279B28920133E1
:104DE000072B279300F3628109F108090029BFF618
:104DF000C3AA4F421031DFF888B280F2E5834946FA
:104E0000DDF81C80B14610242E465D46DDF814B056
:104E100004E00831103F102F40F3D28301331032E9
:104E2000072BC1E90054CDE92732F2DD26AA594605
:104E3000404600F057FD00287EF404AEDDE927323D
:104E400029A9E7E71AF400711CBF0146DBB20C92F6
:104E50005046FFF72EB91AF4007740F019810499F3
:104E60008DF87B7000291C46FFF65DA82AF0800AA9
:104E7000002B7FF458A80B460C9200297FF4CDA993
:104E8000FFF7E7B91AF4007F16BF44F3C017E7171E
:104E900064B23B46FEF7C6BE1AF400711CBFDBB21B
:104EA000314630E55D460C46B3464E4691460133E9
:104EB0003C44072BCDE92734C9F800B0C9F8047089
:104EC00000F3098109F10809FFF73BBB2D23B8F175
:104ED000470F8DF87B3009942346049440F3E28019
:104EE0000322654E0A9212930F930D9304230393AA
:104EF000FEF7CFBD23788DF847312AF4806A0C92F3
:104F00000DF2471634E5189A1699B61A304600F095
:104F100015FD98F801300BB108F10108574AE31963
:104F200043F10003A2FB030C2CF0030000EB9C00F8
:104F30001B1AE31A4FF0CC3167F1000703FB01F1B4
:104F400002FB0711A3FB023001445B0843EAC17472
:104F50004F08E31943F10003A2FB031020F0030103
:104F600001EB90015B1AE31AA3FB023167F1000029
:104F70005B0802FB001243EAC27303EB8303A4EB5A
:104F80004303303306F8013C4FF0010E013EFFF7BA
:104F900022B80599079826AA00F0A4FC00287EF400
:104FA00051AD2099289C0DF1A409FFF7CEB930230B
:104FB000FEF74CBE049B0C920A930D930F93129331
:104FC000039309939C464FF0780852AEE5E4F71836
:104FD000A7EB0B079E1AB742A8BF3746FFF7E6BA02
:104FE0000DF1A409FEF786BD24AB019321AB00931C
:104FF0009DED1C0B049A079820AB022100F0A0FD48
:1050000006461AF0010F40F07D82249B9A1B209BDC
:105010000E92D91C0D93C0F2248204999942C0F2D9
:10502000F3819A4200F3B3820D9B0A931AF4806FC6
:1050300003D00D9B002B00F35E830A9B23EAE373EE
:10504000BA4603934FF06708002312930F930AF0B8
:105050000200BBF1000F00F0BA804FF02D0C8DF86C
:105060007BC0039B013303930023049392E400BFAE
:10507000749000089C90000868900008CDCCCCCCBF
:10508000D09100080C9A089912681180FEF721BF90
:10509000DCB2049B8DF87B10002B0F46BEF63EAFB2
:1050A000FEF741BF0322B44E0A921CE70599079808
:1050B00026AA00F017FC00287EF4C4ACDDE92732F4
:1050C00020990DF1A40991E60623099004934AF46E
:1050D0008077FFF7B7BB0599079826AA00F002FC76
:1050E00000287EF4AFAC289C0DF1A409FFF729BA83
:1050F000049B01330E9302210E9C079824AB01936D
:1051000021AB0093224620AB9DED1C0B00F018FD57
:1051100028F02003462B06460393044400F0348114
:10512000DDE91C0100220023FBF7F2FD002840F01E
:105130000F83249B9C4240F2098345220392302135
:105140005A1C24921970249BA342F9D39B1B0E93E3
:10515000209B0D93039B472B00F04F81039B462B15
:1051600000F02A810D9B8DF88880013B002B209355
:10517000C0F27E812B22092B8DF8892000F38181DA
:1051800030228DF88A200DF18B02303302F8013B7A
:1051900022ABD31A15930E9B159A012B1A440A922F
:1051A00040F339820A9B139A13440A930A9A2AF409
:1051B000806343F4807A22EAE2720023129303921E
:1051C0000F930D9343E7049B0E93032194E79DF8FF
:1051D0007BC0BCF1000F7FF444AFCDF810B0FFF7F7
:1051E000D9BB26AA4946584600F07CFB00287EF42D
:1051F00029AC9AF80000289929AA07449CE405994B
:10520000079826AA00F06EFB00287EF41BAC289CB1
:105210000DF1A409FFF78CB947F63003ADF87C30E7
:10522000049B632B4AF0020A00F3E781DDE91012C8
:10523000002AC0F2108220A89DED100B00F0B6FBF2
:10524000002251EC100B4FF07F53FBF7F9FA0246A6
:105250000B46CDE90A2300230022FBF759FD034644
:10526000002800F0C58201232093CDF824B039AE88
:10527000424B0393049BCDF83490591ECDF83880EF
:10528000CDF83CA0DDE90A89039C049537468A469F
:1052900009E0002200230AF1FF35FBF739FD002861
:1052A00040F07E82AA46364B002240464946FBF734
:1052B000C7FA89468046FBF773FD0546FBF7F2F80F
:1052C00002460B4640464946FAF79EFF635DBAF137
:1052D000FF3F3A46804607F8013B8946D9D114463C
:1052E000284B0022CDE90A89DDF834900D95DDE9DF
:1052F0000E8A049DFBF734FD48B9DDE90A01214B14
:105300000022FBF705FDE0B10D9BD80719D5039BE3
:105310002494D97B17F8012C91423B4609D13020C7
:1053200003F8010C249B5A1E249213F8012C8A4284
:10533000F6D0392A0BBF039A0132927AD2B203F81F
:10534000012C209ABB1B0E93B8F1610F02F1FF33C1
:10535000209300F0118250214FF04108002B8DF86E
:105360008810C0F2FF812B22092B8DF8892000F3D1
:1053700088800DF18A0208E76490000874900008A4
:10538000000030400000E03F3378302B00F08E8189
:10539000209B1C44DDE91C0100220023FBF7B8FC24
:1053A00020BB249BA342FFF4CAAE9B1B0E93209B01
:1053B0000D93039B472B20D00D99049A0AF001030B
:1053C000002943EA020340F32C82002B40F00382C1
:1053D0000D9B0A934FF066081AF4806F40F08D81A0
:1053E0000A9B23EAE373BA4603932DE6209B0D93B1
:1053F000A31B0E93039B472BDED10D9B033330DBA6
:10540000049B0D9A934210DA0D9B013BA8F1020810
:10541000002B8DF888802093BFF6ACAE0D9B2D221B
:10542000C3F101038DF88920AAE6DDE90D2393423B
:1054300000F3AD801AF0010F0D9B00F08581139AE7
:1054400013440A93F2E50599079826AA00F04AFA50
:1054500000287EF4F7AA209A289C0DF1A409FFF7F2
:105460008DB80D9BA8F10208013B8DF88880209330
:105470000D9BC3F101032D22092B8DF889207FF7A5
:105480007FAE0DF19704B44F22461046A7FB0312DE
:10549000D20802EB8201A3EB4101303100F8011C7C
:1054A00019466329134600F1FF32EEDC303302F86F
:1054B000013C831EA34280F0ED810DF1890213F8B7
:1054C000011B02F8011FA342F9D103F5A4736B4439
:1054D000BC3B1B1A22AA9B1A15935CE60C94002B6A
:1054E00000F0E080049B0A935A1C0392099B0493EA
:1054F00012930F930D93FEF7CCBA00230D4604933D
:10550000FEF703BA049BF4184723039342E7059977
:10551000079826AA00F0E6F900287EF493AA209EB8
:105520000E9B289C9E1B0DF1A409FFF73FB845F682
:105530003003ADF87C30049B632B4AF0020A5CDC3C
:10554000DDE91012002AC0F2868020A89DED100B24
:1055500000F02CFA00224FF07F5351EC100BFBF7B8
:105560006FF902460B46CDE90A2300220023FBF720
:10557000CFFB08B101232093784B03934FF0000B2E
:10558000CDF824B039AE75E65146FEF734BE0E9B19
:10559000139A9A180D9B0A92002B40F3F6804FF055
:1055A000670819E75346FEF764BE5046FFF784B913
:1055B00002F100431C911D934FF02D0BFFF74DB9E5
:1055C000AB4635464E46894601333A44072BCDE972
:1055D0002732C9F800B0C9F804707EF7CBAE059940
:1055E000079826AA00F07EF900287EF42BAADDE9B0
:1055F00027320DF1A409FEF7BFBE049B0798591C82
:10560000FBF764FF0646002800F04B8109904AF43E
:105610008077FFF717B91AF0010F3FF4C7ADC1E566
:10562000049A002A00F0D080002BC0F20E819DED7C
:10563000107B8DED1C7B24AB019321AB00939DED82
:105640001C0B20AB049A0798022100F079FA002382
:1056500006460993D5E402F10043CDF824B01C912D
:105660001D9339AE4FF02D0B20A89DED1C0B00F0C3
:105670009DF900224FF07F5351EC100BFBF7E0F83F
:1056800002460B46CDE90A2300220023FBF740FB2C
:1056900008B101232093B8F1610F3FF4E9AD2F4B1E
:1056A0000393E7E5049B0A9303931FE7DDE91C01DD
:1056B00000220023FBF72CFB002800F09480209BA5
:1056C0000D931C4494E6119B13F000432AF0800ACA
:1056D0000D9300F094802D238DF87B30B8F1470FA7
:1056E0004FF000030993049340F3B88003221C4E4B
:1056F0000A92FFF7F8BB4FF0670817990B78FF2B5A
:1057000000F0CB8000240D9A204603E001300131E7
:10571000FF2B08D0934206DAD21A4B78002BF5D132
:105720000B780134F4E717910D920F901294129AAE
:105730000F9B189913440A9A01FB03230A9323EA47
:10574000E373BA46039382E40A936FE49B1B0E93C0
:10575000209B0D9306E500BFCDCCCCCC88900008F3
:1057600070900008C2F10103092B4FF02D028DF853
:1057700089203FF786AEFCE57021EFE50023032288
:10578000CDE909320493FFF7AEBBC3F101031A441C
:1057900022EAE273BA460A9203934FF0670853E491
:1057A00051460029DDE90E8A049DDDF83490FFF6AC
:1057B000C8AD4A1C3A443B46302003F8010B9342E3
:1057C000FBD17B185F1CBCE5002B4CDB0123DDF813
:1057D00010B004932BE71346139A0B4413440A9317
:1057E0004FF06608F8E50E9BC3F101032093D0E566
:1057F0009B46394B0393CDF824B039AE3AE59DF87A
:105800007B30B8F1470FCCBF344E354E002B50D112
:10581000032204930A9212930F9309930392FEF7C3
:1058200038B9BA462BB9012303934FF066080A939F
:105830000AE4139B049A01331A4422EAE2730A929F
:1058400003934FF06608FFF7FFBBDDE9101202F18A
:1058500000431C911D934FF02D0BECE60322204ECC
:105860000A92FFF740BBDDE9101202F100431D93DD
:1058700001231C914FF02D0B0493DCE60C9B95F853
:10588000018053F8042B0C9342EAE2720D46049215
:10589000FEF73AB8022315937DE4002312930F9389
:1058A00045E705998B8943F0400213468A81FEF74C
:1058B000D1B80023049312930F93099303230A93FF
:1058C00004230393FEF7E5B8079A0C2313604FF007
:1058D000FF330893FEF7C1B8749000087090000879
:1058E0006C9000082DE9F843154692682C68FAB1CF
:1058F00080468946083401E00834CFB16B68591EF0
:10590000002B1746696013DD54F8046C002EF3D0A9
:10591000334654F8082C4946404601F005FD431C27
:1059200007D0AA68921B1746AA600834002FE5D159
:1059300000200023C5E90133BDE8F88340EA0103F4
:105940009B0710B501D1032A17D8844601F1FF3E09
:1059500007E01EF8011F03F8011B541E29B19C46E5
:1059600022466346002AF4D110BD9444002CFBD09B
:1059700003F8011B6345FBD110BD8E468446DEF85B
:105980000040A4F1013323EA040313F0803F714681
:105990000EF1040EDAD1043A032A4CF8044BEED887
:1059A0007146D3E7004870473806002070B555ECC3
:1059B000104B0646134825F0004300218342316016
:1059C0001DD8204618431AD00F4828402A4658B9F7
:1059D0000E4B002220462946FAF732FF0A4621F0F4
:1059E000004304466FF035011B156FF31E52A3F2FE
:1059F000FE3342F07F550B4445F40015336045EC0F
:105A0000104B70BDFFFFEF7F0000F07F00005043A0
:105A10002DE9F04F03690C69A34283B0C0F28A807C
:105A2000013C01F1140500F1140855F8243058F830
:105A3000242001339A428E4681464FEA840105EBC9
:105A4000840708EB840AB2FBF3F63AD3CDE90015DC
:105A50000022AC46404613465CF8041B05681FFA5A
:105A600081FB06FB0B22090C4FEA124B06FB01BB24
:105A700092B2A9B2891A19441FFA8BF3C3EB2143DE
:105A800003EB154389B241EA0341674540F8041B23
:105A90004FEA1B424FEA2343DED2DDE9001558F8F6
:105AA000013073B9AAF1040AD04504D307E0D04508
:105AB00004F1FF3403D25AF80439002BF7D0C9F8A7
:105AC00010407146484601F0F5FA00282EDB4146A9
:105AD000002255F8040BD1F800C01FFA80FE1FFA0F
:105AE0008CF3A3EB0E031344020CC2EB234202EB34
:105AF0001C429BB243EA0243AF4241F8043B4FEAE7
